{
  "_format": "hh-sol-artifact-1",
  "contractName": "MilestonePrediction",
  "sourceName": "contracts/MilestonePrediction.sol",
  "abi": [
    {
      "inputs": [],
      "stateMutability": "nonpayable",
      "type": "constructor"
    },
    {
      "anonymous": false,
      "inputs": [
        {
          "indexed": true,
          "internalType": "uint256",
          "name": "marketId",
          "type": "uint256"
        },
        {
          "indexed": true,
          "internalType": "address",
          "name": "bettor",
          "type": "address"
        },
        {
          "indexed": false,
          "internalType": "enum MilestonePrediction.Side",
          "name": "side",
          "type": "uint8"
        },
        {
          "indexed": false,
          "internalType": "uint256",
          "name": "amount",
          "type": "uint256"
        }
      ],
      "name": "BetPlaced",
      "type": "event"
    },
    {
      "anonymous": false,
      "inputs": [
        {
          "indexed": true,
          "internalType": "uint256",
          "name": "marketId",
          "type": "uint256"
        },
        {
          "indexed": true,
          "internalType": "address",
          "name": "creator",
          "type": "address"
        },
        {
          "indexed": false,
          "internalType": "uint256",
          "name": "deadline",
          "type": "uint256"
        },
        {
          "indexed": false,
          "internalType": "uint256",
          "name": "creatorStake",
          "type": "uint256"
        },
        {
          "indexed": false,
          "internalType": "string",
          "name": "metadataURI",
          "type": "string"
        }
      ],
      "name": "MarketCreated",
      "type": "event"
    },
    {
      "anonymous": false,
      "inputs": [
        {
          "indexed": true,
          "internalType": "uint256",
          "name": "marketId",
          "type": "uint256"
        }
      ],
      "name": "MarketLocked",
      "type": "event"
    },
    {
      "anonymous": false,
      "inputs": [
        {
          "indexed": true,
          "internalType": "uint256",
          "name": "marketId",
          "type": "uint256"
        },
        {
          "indexed": false,
          "internalType": "enum MilestonePrediction.Side",
          "name": "winningSide",
          "type": "uint8"
        }
      ],
      "name": "MarketResolved",
      "type": "event"
    },
    {
      "anonymous": false,
      "inputs": [
        {
          "indexed": true,
          "internalType": "uint256",
          "name": "marketId",
          "type": "uint256"
        },
        {
          "indexed": true,
          "internalType": "address",
          "name": "claimer",
          "type": "address"
        },
        {
          "indexed": false,
          "internalType": "uint256",
          "name": "amount",
          "type": "uint256"
        }
      ],
      "name": "RewardClaimed",
      "type": "event"
    },
    {
      "inputs": [
        {
          "internalType": "uint256",
          "name": "marketId",
          "type": "uint256"
        }
      ],
      "name": "betNo",
      "outputs": [],
      "stateMutability": "payable",
      "type": "function"
    },
    {
      "inputs": [
        {
          "internalType": "uint256",
          "name": "marketId",
          "type": "uint256"
        }
      ],
      "name": "betYes",
      "outputs": [],
      "stateMutability": "payable",
      "type": "function"
    },
    {
      "inputs": [
        {
          "internalType": "uint256",
          "name": "",
          "type": "uint256"
        },
        {
          "internalType": "address",
          "name": "",
          "type": "address"
        }
      ],
      "name": "bets",
      "outputs": [
        {
          "internalType": "uint256",
          "name": "yesAmount",
          "type": "uint256"
        },
        {
          "internalType": "uint256",
          "name": "noAmount",
          "type": "uint256"
        },
        {
          "internalType": "bool",
          "name": "claimed",
          "type": "bool"
        }
      ],
      "stateMutability": "view",
      "type": "function"
    },
    {
      "inputs": [
        {
          "internalType": "uint256",
          "name": "marketId",
          "type": "uint256"
        },
        {
          "internalType": "address",
          "name": "user",
          "type": "address"
        }
      ],
      "name": "calculatePotentialPayout",
      "outputs": [
        {
          "internalType": "uint256",
          "name": "yesPayout",
          "type": "uint256"
        },
        {
          "internalType": "uint256",
          "name": "noPayout",
          "type": "uint256"
        }
      ],
      "stateMutability": "view",
      "type": "function"
    },
    {
      "inputs": [
        {
          "internalType": "uint256",
          "name": "marketId",
          "type": "uint256"
        }
      ],
      "name": "claimReward",
      "outputs": [],
      "stateMutability": "nonpayable",
      "type": "function"
    },
    {
      "inputs": [
        {
          "internalType": "uint256",
          "name": "deadline",
          "type": "uint256"
        },
        {
          "internalType": "string",
          "name": "metadataURI",
          "type": "string"
        }
      ],
      "name": "createMarket",
      "outputs": [
        {
          "internalType": "uint256",
          "name": "",
          "type": "uint256"
        }
      ],
      "stateMutability": "payable",
      "type": "function"
    },
    {
      "inputs": [
        {
          "internalType": "uint256",
          "name": "marketId",
          "type": "uint256"
        }
      ],
      "name": "getMarket",
      "outputs": [
        {
          "components": [
            {
              "internalType": "address",
              "name": "creator",
              "type": "address"
            },
            {
              "internalType": "uint256",
              "name": "deadline",
              "type": "uint256"
            },
            {
              "internalType": "uint256",
              "name": "creatorStake",
              "type": "uint256"
            },
            {
              "internalType": "uint256",
              "name": "yesPool",
              "type": "uint256"
            },
            {
              "internalType": "uint256",
              "name": "noPool",
              "type": "uint256"
            },
            {
              "internalType": "enum MilestonePrediction.MarketState",
              "name": "state",
              "type": "uint8"
            },
            {
              "internalType": "enum MilestonePrediction.Side",
              "name": "winningSide",
              "type": "uint8"
            },
            {
              "internalType": "string",
              "name": "metadataURI",
              "type": "string"
            }
          ],
          "internalType": "struct MilestonePrediction.Market",
          "name": "",
          "type": "tuple"
        }
      ],
      "stateMutability": "view",
      "type": "function"
    },
    {
      "inputs": [
        {
          "internalType": "uint256",
          "name": "marketId",
          "type": "uint256"
        },
        {
          "internalType": "address",
          "name": "user",
          "type": "address"
        }
      ],
      "name": "getUserBet",
      "outputs": [
        {
          "components": [
            {
              "internalType": "uint256",
              "name": "yesAmount",
              "type": "uint256"
            },
            {
              "internalType": "uint256",
              "name": "noAmount",
              "type": "uint256"
            },
            {
              "internalType": "bool",
              "name": "claimed",
              "type": "bool"
            }
          ],
          "internalType": "struct MilestonePrediction.Bet",
          "name": "",
          "type": "tuple"
        }
      ],
      "stateMutability": "view",
      "type": "function"
    },
    {
      "inputs": [
        {
          "internalType": "uint256",
          "name": "marketId",
          "type": "uint256"
        }
      ],
      "name": "lockMarket",
      "outputs": [],
      "stateMutability": "nonpayable",
      "type": "function"
    },
    {
      "inputs": [],
      "name": "marketCount",
      "outputs": [
        {
          "internalType": "uint256",
          "name": "",
          "type": "uint256"
        }
      ],
      "stateMutability": "view",
      "type": "function"
    },
    {
      "inputs": [
        {
          "internalType": "uint256",
          "name": "",
          "type": "uint256"
        }
      ],
      "name": "markets",
      "outputs": [
        {
          "internalType": "address",
          "name": "creator",
          "type": "address"
        },
        {
          "internalType": "uint256",
          "name": "deadline",
          "type": "uint256"
        },
        {
          "internalType": "uint256",
          "name": "creatorStake",
          "type": "uint256"
        },
        {
          "internalType": "uint256",
          "name": "yesPool",
          "type": "uint256"
        },
        {
          "internalType": "uint256",
          "name": "noPool",
          "type": "uint256"
        },
        {
          "internalType": "enum MilestonePrediction.MarketState",
          "name": "state",
          "type": "uint8"
        },
        {
          "internalType": "enum MilestonePrediction.Side",
          "name": "winningSide",
          "type": "uint8"
        },
        {
          "internalType": "string",
          "name": "metadataURI",
          "type": "string"
        }
      ],
      "stateMutability": "view",
      "type": "function"
    },
    {
      "inputs": [],
      "name": "oracle",
      "outputs": [
        {
          "internalType": "address",
          "name": "",
          "type": "address"
        }
      ],
      "stateMutability": "view",
      "type": "function"
    },
    {
      "inputs": [
        {
          "internalType": "uint256",
          "name": "marketId",
          "type": "uint256"
        },
        {
          "internalType": "enum MilestonePrediction.Side",
          "name": "winningSide",
          "type": "uint8"
        }
      ],
      "name": "resolveMarket",
      "outputs": [],
      "stateMutability": "nonpayable",
      "type": "function"
    },
    {
      "inputs": [
        {
          "internalType": "address",
          "name": "newOracle",
          "type": "address"
        }
      ],
      "name": "updateOracle",
      "outputs": [],
      "stateMutability": "nonpayable",
      "type": "function"
    }
  ],
  "bytecode": "0x608060405234801561001057600080fd5b50600380546001600160a01b03191633179055611a63806100326000396000f3fe6080604052600436106100dd5760003560e01c8063b1283e771161007f578063df55406e11610059578063df55406e14610275578063eb44fdd314610295578063ec979082146102c2578063f644b3bb146102d857600080fd5b8063b1283e77146101dd578063c03fb87c14610211578063c9d1e6ee1461025557600080fd5b80637dc0d1d0116100bb5780637dc0d1d01461013d5780639346752514610175578063a762abfa14610188578063ae169a50146101bd57600080fd5b80630e6eda6b146100e25780631cb44dfc14610108578063415a4a251461012a575b600080fd5b6100f56100f0366004611510565b61033b565b6040519081526020015b60405180910390f35b34801561011457600080fd5b506101286101233660046115a8565b610589565b005b6101286101383660046115ca565b61063b565b34801561014957600080fd5b5060035461015d906001600160a01b031681565b6040516001600160a01b0390911681526020016100ff565b6101286101833660046115ca565b6107d5565b34801561019457600080fd5b506101a86101a33660046115e3565b61095f565b604080519283526020830191909152016100ff565b3480156101c957600080fd5b506101286101d83660046115ca565b610bf6565b3480156101e957600080fd5b506101fd6101f83660046115ca565b610efa565b6040516100ff989796959493929190611699565b34801561021d57600080fd5b5061023161022c3660046115e3565b610fdb565b604080518251815260208084015190820152918101511515908201526060016100ff565b34801561026157600080fd5b506101286102703660046115ca565b611071565b34801561028157600080fd5b50610128610290366004611700565b611178565b3480156102a157600080fd5b506102b56102b03660046115ca565b611327565b6040516100ff9190611734565b3480156102ce57600080fd5b506100f560005481565b3480156102e457600080fd5b5061031e6102f33660046115e3565b6002602081815260009384526040808520909152918352912080546001820154919092015460ff1683565b6040805193845260208401929092521515908201526060016100ff565b60004284116103915760405162461bcd60e51b815260206004820152601760248201527f446561646c696e65206d7573742062652066757475726500000000000000000060448201526064015b60405180910390fd5b600034116103d25760405162461bcd60e51b815260206004820152600e60248201526d26bab9ba1039ba30b5b29021272160911b6044820152606401610388565b6000805481806103e1836117d1565b919050559050604051806101000160405280336001600160a01b0316815260200186815260200134815260200160008152602001600081526020016000600281111561042f5761042f61160f565b81526020016000815260200185858080601f016020809104026020016040519081016040528093929190818152602001838380828437600092018290525093909452505083815260016020818152604092839020855181546001600160a01b0319166001600160a01b03909116178155908501518183015591840151600280840191909155606085015160038401556080850151600484015560a08501516005840180549495509093909260ff199091169184908111156104f2576104f261160f565b021790555060c082015160058201805461ff00191661010083600281111561051c5761051c61160f565b021790555060e082015160068201906105359082611885565b50905050336001600160a01b0316817f19cdadc3e64ead0adc0cdf57df062a2a07906a83b648d6a63e242948bb3a9cf2873488886040516105799493929190611945565b60405180910390a3949350505050565b6003546001600160a01b031633146105d15760405162461bcd60e51b815260206004820152600b60248201526a4f6e6c79206f7261636c6560a81b6044820152606401610388565b6001600160a01b0381166106195760405162461bcd60e51b815260206004820152600f60248201526e496e76616c6964206164647265737360881b6044820152606401610388565b600380546001600160a01b0319166001600160a01b0392909216919091179055565b80600054811061065d5760405162461bcd60e51b815260040161038890611982565b600082815260016020526040812090600582015460ff1660028111156106855761068561160f565b146106c45760405162461bcd60e51b815260206004820152600f60248201526e26b0b935b2ba103737ba1037b832b760891b6044820152606401610388565b806001015442106107075760405162461bcd60e51b815260206004820152600d60248201526c5061737420646561646c696e6560981b6044820152606401610388565b600034116107475760405162461bcd60e51b815260206004820152600d60248201526c26bab9ba1039b2b7321021272160991b6044820152606401610388565b3481600401600082825461075b91906119b1565b909155505060008381526002602090815260408083203384529091528120600101805434929061078c9084906119b1565b9091555050604051339084907f4f1eed5e863a822b0f9eb960dfdab2cc5a99beec4b191f2a7a9c7e28e5a15524906107c89060029034906119ca565b60405180910390a3505050565b8060005481106107f75760405162461bcd60e51b815260040161038890611982565b600082815260016020526040812090600582015460ff16600281111561081f5761081f61160f565b1461085e5760405162461bcd60e51b815260206004820152600f60248201526e26b0b935b2ba103737ba1037b832b760891b6044820152606401610388565b806001015442106108a15760405162461bcd60e51b815260206004820152600d60248201526c5061737420646561646c696e6560981b6044820152606401610388565b600034116108e15760405162461bcd60e51b815260206004820152600d60248201526c26bab9ba1039b2b7321021272160991b6044820152606401610388565b348160030160008282546108f591906119b1565b90915550506000838152600260209081526040808320338452909152812080543492906109239084906119b1565b9091555050604051339084907f4f1eed5e863a822b0f9eb960dfdab2cc5a99beec4b191f2a7a9c7e28e5a15524906107c89060019034906119ca565b6000808360005481106109845760405162461bcd60e51b815260040161038890611982565b600085815260016020818152604080842081516101008101835281546001600160a01b031681529381015492840192909252600280830154918401919091526003820154606084015260048201546080840152600582015460a084019160ff909116908111156109f6576109f661160f565b6002811115610a0757610a0761160f565b81526020016005820160019054906101000a900460ff166002811115610a2f57610a2f61160f565b6002811115610a4057610a4061160f565b8152602001600682018054610a5490611800565b80601f0160208091040260200160405190810160405280929190818152602001828054610a8090611800565b8015610acd5780601f10610aa257610100808354040283529160200191610acd565b820191906000526020600020905b815481529060010190602001808311610ab057829003601f168201915b5050509190925250505060008781526002602081815260408084206001600160a01b038b1685528252928390208351606080820186528254825260018301549382019390935292015460ff16151592820192909252908201519192509015801590610b385750805115155b15610b85576000826040015183608001518460600151610b5891906119b1565b610b6291906119b1565b6060840151835191925090610b7790836119e1565b610b8191906119f8565b9550505b60008260800151118015610b9d575060008160200151115b15610bec576000826040015183608001518460600151610bbd91906119b1565b610bc791906119b1565b90508260800151826020015182610bde91906119e1565b610be891906119f8565b9450505b5050509250929050565b806000548110610c185760405162461bcd60e51b815260040161038890611982565b60008281526001602052604090206002600582015460ff166002811115610c4157610c4161160f565b14610c7d5760405162461bcd60e51b815260206004820152600c60248201526b139bdd081c995cdbdb1d995960a21b6044820152606401610388565b60008381526002602081815260408084203385529091529091209081015460ff1615610cdd5760405162461bcd60e51b815260206004820152600f60248201526e105b1c9958591e4818db185a5b5959608a1b6044820152606401610388565b600060016005840154610100900460ff166002811115610cff57610cff61160f565b148015610d0c5750815415155b15610d5d576000836002015484600401548560030154610d2c91906119b1565b610d3691906119b1565b6003850154845491925090610d4b90836119e1565b610d5591906119f8565b915050610ddd565b60026005840154610100900460ff166002811115610d7d57610d7d61160f565b148015610d8e575060008260010154115b15610ddd576000836002015484600401548560030154610dae91906119b1565b610db891906119b1565b90508360040154836001015482610dcf91906119e1565b610dd991906119f8565b9150505b60008111610e225760405162461bcd60e51b81526020600482015260126024820152714e6f2072657761726420746f20636c61696d60701b6044820152606401610388565b60028201805460ff19166001179055604051600090339083908381818185875af1925050503d8060008114610e73576040519150601f19603f3d011682016040523d82523d6000602084013e610e78565b606091505b5050905080610ebb5760405162461bcd60e51b815260206004820152600f60248201526e151c985b9cd9995c8819985a5b1959608a1b6044820152606401610388565b604051828152339087907f24b5efa61dd1cfc659205a97fb8ed868f3cb8c81922bab2b96423e5de1de2cb79060200160405180910390a3505050505050565b600160208190526000918252604090912080549181015460028201546003830154600484015460058501546006860180546001600160a01b0390981697959694959394929360ff8084169461010090940416929190610f5890611800565b80601f0160208091040260200160405190810160405280929190818152602001828054610f8490611800565b8015610fd15780601f10610fa657610100808354040283529160200191610fd1565b820191906000526020600020905b815481529060010190602001808311610fb457829003601f168201915b5050505050905088565b611001604051806060016040528060008152602001600081526020016000151581525090565b8260005481106110235760405162461bcd60e51b815260040161038890611982565b505060009182526002602081815260408085206001600160a01b0394909416855292815292829020825160608101845281548152600182015494810194909452015460ff1615159082015290565b8060005481106110935760405162461bcd60e51b815260040161038890611982565b600082815260016020526040812090600582015460ff1660028111156110bb576110bb61160f565b146110f35760405162461bcd60e51b81526020600482015260086024820152672737ba1037b832b760c11b6044820152606401610388565b80600101544210156111395760405162461bcd60e51b815260206004820152600f60248201526e4265666f726520646561646c696e6560881b6044820152606401610388565b60058101805460ff1916600117905560405183907f2d597ad63f8c5090e993389fdab0249476d2f29bcbc52e99da3236a4370f11ba90600090a2505050565b6003546001600160a01b031633146111c05760405162461bcd60e51b815260206004820152600b60248201526a4f6e6c79206f7261636c6560a81b6044820152606401610388565b8160005481106111e25760405162461bcd60e51b815260040161038890611982565b600083815260016020819052604090912090600582015460ff16600281111561120d5761120d61160f565b146112475760405162461bcd60e51b815260206004820152600a602482015269139bdd081b1bd8dad95960b21b6044820152606401610388565b600183600281111561125b5761125b61160f565b1480611278575060028360028111156112765761127661160f565b145b6112b35760405162461bcd60e51b815260206004820152600c60248201526b496e76616c6964207369646560a01b6044820152606401610388565b600581018054600260ff1982168117835585929161ffff19168117906101009084908111156112e4576112e461160f565b0217905550837f739f283563fb51ab6b89ee95d937b2e63a6cfcb83c385dbebb629f9d97bd43e6846040516113199190611a1a565b60405180910390a250505050565b61132f6114b1565b8160005481106113515760405162461bcd60e51b815260040161038890611982565b60008381526001602081815260409283902083516101008101855281546001600160a01b03168152928101549183019190915260028082015493830193909352600381015460608301526004810154608083015260058101549192909160a084019160ff909116908111156113c8576113c861160f565b60028111156113d9576113d961160f565b81526020016005820160019054906101000a900460ff1660028111156114015761140161160f565b60028111156114125761141261160f565b815260200160068201805461142690611800565b80601f016020809104026020016040519081016040528092919081815260200182805461145290611800565b801561149f5780601f106114745761010080835404028352916020019161149f565b820191906000526020600020905b81548152906001019060200180831161148257829003601f168201915b50505050508152505091505b50919050565b60405180610100016040528060006001600160a01b0316815260200160008152602001600081526020016000815260200160008152602001600060028111156114fc576114fc61160f565b815260200160008152602001606081525090565b60008060006040848603121561152557600080fd5b83359250602084013567ffffffffffffffff8082111561154457600080fd5b818601915086601f83011261155857600080fd5b81358181111561156757600080fd5b87602082850101111561157957600080fd5b6020830194508093505050509250925092565b80356001600160a01b03811681146115a357600080fd5b919050565b6000602082840312156115ba57600080fd5b6115c38261158c565b9392505050565b6000602082840312156115dc57600080fd5b5035919050565b600080604083850312156115f657600080fd5b823591506116066020840161158c565b90509250929050565b634e487b7160e01b600052602160045260246000fd5b6003811061164357634e487b7160e01b600052602160045260246000fd5b50565b61164f81611625565b9052565b6000815180845260005b818110156116795760208185018101518683018201520161165d565b506000602082860101526020601f19601f83011685010191505092915050565b600061010060018060a01b038b1683528960208401528860408401528760608401528660808401526116ca86611625565b8560a08401526116d985611625565b8460c08401528060e08401526116f181840185611653565b9b9a5050505050505050505050565b6000806040838503121561171357600080fd5b8235915060208301356003811061172957600080fd5b809150509250929050565b6020815260018060a01b038251166020820152602082015160408201526040820151606082015260608201516080820152608082015160a0820152600060a083015161177f81611625565b8060c08401525060c083015161179860e0840182611646565b5060e0830151610100838101526117b3610120840182611653565b949350505050565b634e487b7160e01b600052601160045260246000fd5b6000600182016117e3576117e36117bb565b5060010190565b634e487b7160e01b600052604160045260246000fd5b600181811c9082168061181457607f821691505b6020821081036114ab57634e487b7160e01b600052602260045260246000fd5b601f821115611880576000816000526020600020601f850160051c8101602086101561185d5750805b601f850160051c820191505b8181101561187c57828155600101611869565b5050505b505050565b815167ffffffffffffffff81111561189f5761189f6117ea565b6118b3816118ad8454611800565b84611834565b602080601f8311600181146118e857600084156118d05750858301515b600019600386901b1c1916600185901b17855561187c565b600085815260208120601f198616915b82811015611917578886015182559484019460019091019084016118f8565b50858210156119355787850151600019600388901b60f8161c191681555b5050505050600190811b01905550565b84815283602082015260606040820152816060820152818360808301376000818301608090810191909152601f909201601f191601019392505050565b60208082526015908201527413585c9ad95d08191bd95cc81b9bdd08195e1a5cdd605a1b604082015260600190565b808201808211156119c4576119c46117bb565b92915050565b604081016119d784611625565b9281526020015290565b80820281158282048414176119c4576119c46117bb565b600082611a1557634e487b7160e01b600052601260045260246000fd5b500490565b60208101611a2783611625565b9190529056fea26469706673582212207827f9ec4b4d0143cef8a071f819cded11614c76463418cee76de5984f47457664736f6c63430008180033",
  "linkReferences": {},
  "deployedLinkReferences": {}
}