{
  "_format": "hh-sol-artifact-1",
  "contractName": "MilestonePrediction",
  "sourceName": "contracts/MilestonePrediction.sol",
  "abi": [
    {
      "inputs": [],
      "stateMutability": "nonpayable",
      "type": "constructor"
    },
    {
      "anonymous": false,
      "inputs": [
        {
          "indexed": true,
          "internalType": "uint256",
          "name": "marketId",
          "type": "uint256"
        },
        {
          "indexed": true,
          "internalType": "address",
          "name": "bettor",
          "type": "address"
        },
        {
          "indexed": false,
          "internalType": "enum MilestonePrediction.Side",
          "name": "side",
          "type": "uint8"
        },
        {
          "indexed": false,
          "internalType": "uint256",
          "name": "amount",
          "type": "uint256"
        }
      ],
      "name": "BetPlaced",
      "type": "event"
    },
    {
      "anonymous": false,
      "inputs": [
        {
          "indexed": true,
          "internalType": "uint256",
          "name": "marketId",
          "type": "uint256"
        },
        {
          "indexed": true,
          "internalType": "address",
          "name": "creator",
          "type": "address"
        },
        {
          "indexed": false,
          "internalType": "uint256",
          "name": "deadline",
          "type": "uint256"
        },
        {
          "indexed": false,
          "internalType": "uint256",
          "name": "creatorStake",
          "type": "uint256"
        },
        {
          "indexed": false,
          "internalType": "string",
          "name": "metadataURI",
          "type": "string"
        },
        {
          "indexed": false,
          "internalType": "uint256",
          "name": "startupId",
          "type": "uint256"
        }
      ],
      "name": "MarketCreated",
      "type": "event"
    },
    {
      "anonymous": false,
      "inputs": [
        {
          "indexed": true,
          "internalType": "uint256",
          "name": "marketId",
          "type": "uint256"
        }
      ],
      "name": "MarketLocked",
      "type": "event"
    },
    {
      "anonymous": false,
      "inputs": [
        {
          "indexed": true,
          "internalType": "uint256",
          "name": "marketId",
          "type": "uint256"
        },
        {
          "indexed": false,
          "internalType": "enum MilestonePrediction.Side",
          "name": "winningSide",
          "type": "uint8"
        }
      ],
      "name": "MarketResolved",
      "type": "event"
    },
    {
      "anonymous": false,
      "inputs": [
        {
          "indexed": true,
          "internalType": "uint256",
          "name": "marketId",
          "type": "uint256"
        },
        {
          "indexed": true,
          "internalType": "address",
          "name": "claimer",
          "type": "address"
        },
        {
          "indexed": false,
          "internalType": "uint256",
          "name": "amount",
          "type": "uint256"
        }
      ],
      "name": "RewardClaimed",
      "type": "event"
    },
    {
      "anonymous": false,
      "inputs": [
        {
          "indexed": true,
          "internalType": "uint256",
          "name": "startupId",
          "type": "uint256"
        },
        {
          "indexed": true,
          "internalType": "address",
          "name": "creator",
          "type": "address"
        },
        {
          "indexed": false,
          "internalType": "string",
          "name": "name",
          "type": "string"
        },
        {
          "indexed": false,
          "internalType": "string",
          "name": "category",
          "type": "string"
        }
      ],
      "name": "StartupCreated",
      "type": "event"
    },
    {
      "inputs": [
        {
          "internalType": "uint256",
          "name": "marketId",
          "type": "uint256"
        }
      ],
      "name": "betNo",
      "outputs": [],
      "stateMutability": "payable",
      "type": "function"
    },
    {
      "inputs": [
        {
          "internalType": "uint256",
          "name": "marketId",
          "type": "uint256"
        }
      ],
      "name": "betYes",
      "outputs": [],
      "stateMutability": "payable",
      "type": "function"
    },
    {
      "inputs": [
        {
          "internalType": "uint256",
          "name": "",
          "type": "uint256"
        },
        {
          "internalType": "address",
          "name": "",
          "type": "address"
        }
      ],
      "name": "bets",
      "outputs": [
        {
          "internalType": "uint256",
          "name": "yesAmount",
          "type": "uint256"
        },
        {
          "internalType": "uint256",
          "name": "noAmount",
          "type": "uint256"
        },
        {
          "internalType": "bool",
          "name": "claimed",
          "type": "bool"
        }
      ],
      "stateMutability": "view",
      "type": "function"
    },
    {
      "inputs": [
        {
          "internalType": "uint256",
          "name": "marketId",
          "type": "uint256"
        },
        {
          "internalType": "address",
          "name": "user",
          "type": "address"
        }
      ],
      "name": "calculatePotentialPayout",
      "outputs": [
        {
          "internalType": "uint256",
          "name": "yesPayout",
          "type": "uint256"
        },
        {
          "internalType": "uint256",
          "name": "noPayout",
          "type": "uint256"
        }
      ],
      "stateMutability": "view",
      "type": "function"
    },
    {
      "inputs": [
        {
          "internalType": "uint256",
          "name": "marketId",
          "type": "uint256"
        }
      ],
      "name": "claimReward",
      "outputs": [],
      "stateMutability": "nonpayable",
      "type": "function"
    },
    {
      "inputs": [
        {
          "internalType": "uint256",
          "name": "deadline",
          "type": "uint256"
        },
        {
          "internalType": "string",
          "name": "metadataURI",
          "type": "string"
        },
        {
          "internalType": "uint256",
          "name": "startupId",
          "type": "uint256"
        }
      ],
      "name": "createMarket",
      "outputs": [
        {
          "internalType": "uint256",
          "name": "",
          "type": "uint256"
        }
      ],
      "stateMutability": "payable",
      "type": "function"
    },
    {
      "inputs": [
        {
          "internalType": "string",
          "name": "name",
          "type": "string"
        },
        {
          "internalType": "string",
          "name": "description",
          "type": "string"
        },
        {
          "internalType": "string",
          "name": "category",
          "type": "string"
        },
        {
          "internalType": "string",
          "name": "stage",
          "type": "string"
        },
        {
          "internalType": "string",
          "name": "website",
          "type": "string"
        }
      ],
      "name": "createStartup",
      "outputs": [
        {
          "internalType": "uint256",
          "name": "",
          "type": "uint256"
        }
      ],
      "stateMutability": "nonpayable",
      "type": "function"
    },
    {
      "inputs": [
        {
          "internalType": "uint256",
          "name": "marketId",
          "type": "uint256"
        }
      ],
      "name": "getMarket",
      "outputs": [
        {
          "components": [
            {
              "internalType": "address",
              "name": "creator",
              "type": "address"
            },
            {
              "internalType": "uint256",
              "name": "deadline",
              "type": "uint256"
            },
            {
              "internalType": "uint256",
              "name": "creatorStake",
              "type": "uint256"
            },
            {
              "internalType": "uint256",
              "name": "yesPool",
              "type": "uint256"
            },
            {
              "internalType": "uint256",
              "name": "noPool",
              "type": "uint256"
            },
            {
              "internalType": "enum MilestonePrediction.MarketState",
              "name": "state",
              "type": "uint8"
            },
            {
              "internalType": "enum MilestonePrediction.Side",
              "name": "winningSide",
              "type": "uint8"
            },
            {
              "internalType": "string",
              "name": "metadataURI",
              "type": "string"
            },
            {
              "internalType": "uint256",
              "name": "startupId",
              "type": "uint256"
            }
          ],
          "internalType": "struct MilestonePrediction.Market",
          "name": "",
          "type": "tuple"
        }
      ],
      "stateMutability": "view",
      "type": "function"
    },
    {
      "inputs": [
        {
          "internalType": "uint256",
          "name": "startupId",
          "type": "uint256"
        }
      ],
      "name": "getStartup",
      "outputs": [
        {
          "components": [
            {
              "internalType": "address",
              "name": "creator",
              "type": "address"
            },
            {
              "internalType": "string",
              "name": "name",
              "type": "string"
            },
            {
              "internalType": "string",
              "name": "description",
              "type": "string"
            },
            {
              "internalType": "string",
              "name": "category",
              "type": "string"
            },
            {
              "internalType": "string",
              "name": "stage",
              "type": "string"
            },
            {
              "internalType": "string",
              "name": "website",
              "type": "string"
            },
            {
              "internalType": "uint256",
              "name": "createdAt",
              "type": "uint256"
            }
          ],
          "internalType": "struct MilestonePrediction.Startup",
          "name": "",
          "type": "tuple"
        }
      ],
      "stateMutability": "view",
      "type": "function"
    },
    {
      "inputs": [
        {
          "internalType": "uint256",
          "name": "marketId",
          "type": "uint256"
        },
        {
          "internalType": "address",
          "name": "user",
          "type": "address"
        }
      ],
      "name": "getUserBet",
      "outputs": [
        {
          "components": [
            {
              "internalType": "uint256",
              "name": "yesAmount",
              "type": "uint256"
            },
            {
              "internalType": "uint256",
              "name": "noAmount",
              "type": "uint256"
            },
            {
              "internalType": "bool",
              "name": "claimed",
              "type": "bool"
            }
          ],
          "internalType": "struct MilestonePrediction.Bet",
          "name": "",
          "type": "tuple"
        }
      ],
      "stateMutability": "view",
      "type": "function"
    },
    {
      "inputs": [
        {
          "internalType": "uint256",
          "name": "marketId",
          "type": "uint256"
        }
      ],
      "name": "lockMarket",
      "outputs": [],
      "stateMutability": "nonpayable",
      "type": "function"
    },
    {
      "inputs": [],
      "name": "marketCount",
      "outputs": [
        {
          "internalType": "uint256",
          "name": "",
          "type": "uint256"
        }
      ],
      "stateMutability": "view",
      "type": "function"
    },
    {
      "inputs": [
        {
          "internalType": "uint256",
          "name": "",
          "type": "uint256"
        }
      ],
      "name": "markets",
      "outputs": [
        {
          "internalType": "address",
          "name": "creator",
          "type": "address"
        },
        {
          "internalType": "uint256",
          "name": "deadline",
          "type": "uint256"
        },
        {
          "internalType": "uint256",
          "name": "creatorStake",
          "type": "uint256"
        },
        {
          "internalType": "uint256",
          "name": "yesPool",
          "type": "uint256"
        },
        {
          "internalType": "uint256",
          "name": "noPool",
          "type": "uint256"
        },
        {
          "internalType": "enum MilestonePrediction.MarketState",
          "name": "state",
          "type": "uint8"
        },
        {
          "internalType": "enum MilestonePrediction.Side",
          "name": "winningSide",
          "type": "uint8"
        },
        {
          "internalType": "string",
          "name": "metadataURI",
          "type": "string"
        },
        {
          "internalType": "uint256",
          "name": "startupId",
          "type": "uint256"
        }
      ],
      "stateMutability": "view",
      "type": "function"
    },
    {
      "inputs": [],
      "name": "oracle",
      "outputs": [
        {
          "internalType": "address",
          "name": "",
          "type": "address"
        }
      ],
      "stateMutability": "view",
      "type": "function"
    },
    {
      "inputs": [
        {
          "internalType": "uint256",
          "name": "marketId",
          "type": "uint256"
        },
        {
          "internalType": "enum MilestonePrediction.Side",
          "name": "winningSide",
          "type": "uint8"
        }
      ],
      "name": "resolveMarket",
      "outputs": [],
      "stateMutability": "nonpayable",
      "type": "function"
    },
    {
      "inputs": [],
      "name": "startupCount",
      "outputs": [
        {
          "internalType": "uint256",
          "name": "",
          "type": "uint256"
        }
      ],
      "stateMutability": "view",
      "type": "function"
    },
    {
      "inputs": [
        {
          "internalType": "uint256",
          "name": "",
          "type": "uint256"
        }
      ],
      "name": "startups",
      "outputs": [
        {
          "internalType": "address",
          "name": "creator",
          "type": "address"
        },
        {
          "internalType": "string",
          "name": "name",
          "type": "string"
        },
        {
          "internalType": "string",
          "name": "description",
          "type": "string"
        },
        {
          "internalType": "string",
          "name": "category",
          "type": "string"
        },
        {
          "internalType": "string",
          "name": "stage",
          "type": "string"
        },
        {
          "internalType": "string",
          "name": "website",
          "type": "string"
        },
        {
          "internalType": "uint256",
          "name": "createdAt",
          "type": "uint256"
        }
      ],
      "stateMutability": "view",
      "type": "function"
    },
    {
      "inputs": [
        {
          "internalType": "address",
          "name": "newOracle",
          "type": "address"
        }
      ],
      "name": "updateOracle",
      "outputs": [],
      "stateMutability": "nonpayable",
      "type": "function"
    }
  ],
  "bytecode": "0x608060405234801561001057600080fd5b50600580546001600160a01b03191633179055612815806100326000396000f3fe6080604052600436106101095760003560e01c8063b1283e7711610095578063df55406e11610064578063df55406e14610325578063eb44fdd314610345578063ebd08afc14610372578063ec97908214610385578063f644b3bb1461039b57600080fd5b8063b1283e7714610259578063c03fb87c1461028e578063c9d1e6ee146102d2578063d91db9a0146102f257600080fd5b8063415a4a25116100dc578063415a4a25146101a65780637dc0d1d0146101b957806393467525146101f1578063a762abfa14610204578063ae169a501461023957600080fd5b8063112b49351461010e5780631cb44dfc1461014157806325ce7586146101635780633286c9dd14610179575b600080fd5b34801561011a57600080fd5b5061012e61012936600461204d565b610402565b6040519081526020015b60405180910390f35b34801561014d57600080fd5b5061016161015c36600461215a565b61071a565b005b34801561016f57600080fd5b5061012e60015481565b34801561018557600080fd5b5061019961019436600461217c565b6107cc565b60405161013891906121db565b6101616101b436600461217c565b610b76565b3480156101c557600080fd5b506005546101d9906001600160a01b031681565b6040516001600160a01b039091168152602001610138565b6101616101ff36600461217c565b610d10565b34801561021057600080fd5b5061022461021f366004612297565b610e9a565b60408051928352602083019190915201610138565b34801561024557600080fd5b5061016161025436600461217c565b61113f565b34801561026557600080fd5b5061027961027436600461217c565b611445565b60405161013899989796959493929190612307565b34801561029a57600080fd5b506102ae6102a9366004612297565b61152b565b60408051825181526020808401519082015291810151151590820152606001610138565b3480156102de57600080fd5b506101616102ed36600461217c565b6115c3565b3480156102fe57600080fd5b5061031261030d36600461217c565b6116ca565b6040516101389796959493929190612377565b34801561033157600080fd5b506101616103403660046123fe565b6119b7565b34801561035157600080fd5b5061036561036036600461217c565b611b64565b6040516101389190612432565b61012e6103803660046124ca565b611cf4565b34801561039157600080fd5b5061012e60005481565b3480156103a757600080fd5b506103e56103b6366004612297565b600460209081526000928352604080842090915290825290208054600182015460029092015490919060ff1683565b604080519384526020840192909252151590820152606001610138565b6000896104465760405162461bcd60e51b815260206004820152600d60248201526c13985b59481c995c5d5a5c9959609a1b60448201526064015b60405180910390fd5b8761048a5760405162461bcd60e51b815260206004820152601460248201527311195cd8dc9a5c1d1a5bdb881c995c5d5a5c995960621b604482015260640161043d565b856104cb5760405162461bcd60e51b815260206004820152601160248201527010d85d1959dbdc9e481c995c5d5a5c9959607a1b604482015260640161043d565b60018054600091826104dc83612533565b9190505590506040518060e00160405280336001600160a01b031681526020018d8d8080601f016020809104026020016040519081016040528093929190818152602001838380828437600092019190915250505090825250604080516020601f8e018190048102820181019092528c815291810191908d908d9081908401838280828437600092019190915250505090825250604080516020601f8c018190048102820181019092528a815291810191908b908b9081908401838280828437600092019190915250505090825250604080516020601f8a0181900481028201810190925288815291810191908990899081908401838280828437600092019190915250505090825250604080516020601f8801819004810282018101909252868152918101919087908790819084018382808284376000920182905250938552505042602093840152508381526003825260409020825181546001600160a01b0319166001600160a01b0390911617815590820151600182019061066190826125e7565b506040820151600282019061067690826125e7565b506060820151600382019061068b90826125e7565b50608082015160048201906106a090826125e7565b5060a082015160058201906106b590826125e7565b5060c08201518160060155905050336001600160a01b0316817f1d91c6a07949bcfebf4a81122ae0a26b6d0be1e1fe91be60e6bc32a262c97cb98e8e8c8c60405161070394939291906126d0565b60405180910390a39b9a5050505050505050505050565b6005546001600160a01b031633146107625760405162461bcd60e51b815260206004820152600b60248201526a4f6e6c79206f7261636c6560a81b604482015260640161043d565b6001600160a01b0381166107aa5760405162461bcd60e51b815260206004820152600f60248201526e496e76616c6964206164647265737360881b604482015260640161043d565b600580546001600160a01b0319166001600160a01b0392909216919091179055565b6108156040518060e0016040528060006001600160a01b031681526020016060815260200160608152602001606081526020016060815260200160608152602001600081525090565b600154821061085f5760405162461bcd60e51b815260206004820152601660248201527514dd185c9d1d5c08191bd95cc81b9bdd08195e1a5cdd60521b604482015260640161043d565b600082815260036020908152604091829020825160e0810190935280546001600160a01b03168352600181018054919284019161089b90612562565b80601f01602080910402602001604051908101604052809291908181526020018280546108c790612562565b80156109145780601f106108e957610100808354040283529160200191610914565b820191906000526020600020905b8154815290600101906020018083116108f757829003601f168201915b5050505050815260200160028201805461092d90612562565b80601f016020809104026020016040519081016040528092919081815260200182805461095990612562565b80156109a65780601f1061097b576101008083540402835291602001916109a6565b820191906000526020600020905b81548152906001019060200180831161098957829003601f168201915b505050505081526020016003820180546109bf90612562565b80601f01602080910402602001604051908101604052809291908181526020018280546109eb90612562565b8015610a385780601f10610a0d57610100808354040283529160200191610a38565b820191906000526020600020905b815481529060010190602001808311610a1b57829003601f168201915b50505050508152602001600482018054610a5190612562565b80601f0160208091040260200160405190810160405280929190818152602001828054610a7d90612562565b8015610aca5780601f10610a9f57610100808354040283529160200191610aca565b820191906000526020600020905b815481529060010190602001808311610aad57829003601f168201915b50505050508152602001600582018054610ae390612562565b80601f0160208091040260200160405190810160405280929190818152602001828054610b0f90612562565b8015610b5c5780601f10610b3157610100808354040283529160200191610b5c565b820191906000526020600020905b815481529060010190602001808311610b3f57829003601f168201915b505050505081526020016006820154815250509050919050565b806000548110610b985760405162461bcd60e51b815260040161043d90612702565b600082815260026020526040812090600582015460ff166002811115610bc057610bc06122c3565b14610bff5760405162461bcd60e51b815260206004820152600f60248201526e26b0b935b2ba103737ba1037b832b760891b604482015260640161043d565b80600101544210610c425760405162461bcd60e51b815260206004820152600d60248201526c5061737420646561646c696e6560981b604482015260640161043d565b60003411610c825760405162461bcd60e51b815260206004820152600d60248201526c26bab9ba1039b2b7321021272160991b604482015260640161043d565b34816004016000828254610c969190612731565b9091555050600083815260046020908152604080832033845290915281206001018054349290610cc7908490612731565b9091555050604051339084907f4f1eed5e863a822b0f9eb960dfdab2cc5a99beec4b191f2a7a9c7e28e5a1552490610d0390600290349061274a565b60405180910390a3505050565b806000548110610d325760405162461bcd60e51b815260040161043d90612702565b600082815260026020526040812090600582015460ff166002811115610d5a57610d5a6122c3565b14610d995760405162461bcd60e51b815260206004820152600f60248201526e26b0b935b2ba103737ba1037b832b760891b604482015260640161043d565b80600101544210610ddc5760405162461bcd60e51b815260206004820152600d60248201526c5061737420646561646c696e6560981b604482015260640161043d565b60003411610e1c5760405162461bcd60e51b815260206004820152600d60248201526c26bab9ba1039b2b7321021272160991b604482015260640161043d565b34816003016000828254610e309190612731565b9091555050600083815260046020908152604080832033845290915281208054349290610e5e908490612731565b9091555050604051339084907f4f1eed5e863a822b0f9eb960dfdab2cc5a99beec4b191f2a7a9c7e28e5a1552490610d0390600190349061274a565b600080836000548110610ebf5760405162461bcd60e51b815260040161043d90612702565b600085815260026020818152604080842081516101208101835281546001600160a01b031681526001820154938101939093528084015491830191909152600381015460608301526004810154608083015260058101549192909160a084019160ff90911690811115610f3457610f346122c3565b6002811115610f4557610f456122c3565b81526020016005820160019054906101000a900460ff166002811115610f6d57610f6d6122c3565b6002811115610f7e57610f7e6122c3565b8152602001600682018054610f9290612562565b80601f0160208091040260200160405190810160405280929190818152602001828054610fbe90612562565b801561100b5780601f10610fe05761010080835404028352916020019161100b565b820191906000526020600020905b815481529060010190602001808311610fee57829003601f168201915b50505091835250506007919091015460209182015260008881526004825260408082206001600160a01b038a1683528352908190208151606080820184528254825260018301549482019490945260029091015460ff161515918101919091529082015191925090158015906110815750805115155b156110ce5760008260400151836080015184606001516110a19190612731565b6110ab9190612731565b60608401518351919250906110c09083612761565b6110ca9190612778565b9550505b600082608001511180156110e6575060008160200151115b156111355760008260400151836080015184606001516111069190612731565b6111109190612731565b905082608001518260200151826111279190612761565b6111319190612778565b9450505b5050509250929050565b8060005481106111615760405162461bcd60e51b815260040161043d90612702565b600082815260026020819052604090912090600582015460ff16600281111561118c5761118c6122c3565b146111c85760405162461bcd60e51b815260206004820152600c60248201526b139bdd081c995cdbdb1d995960a21b604482015260640161043d565b60008381526004602090815260408083203384529091529020600281015460ff16156112285760405162461bcd60e51b815260206004820152600f60248201526e105b1c9958591e4818db185a5b5959608a1b604482015260640161043d565b600060016005840154610100900460ff16600281111561124a5761124a6122c3565b1480156112575750815415155b156112a85760008360020154846004015485600301546112779190612731565b6112819190612731565b60038501548454919250906112969083612761565b6112a09190612778565b915050611328565b60026005840154610100900460ff1660028111156112c8576112c86122c3565b1480156112d9575060008260010154115b156113285760008360020154846004015485600301546112f99190612731565b6113039190612731565b9050836004015483600101548261131a9190612761565b6113249190612778565b9150505b6000811161136d5760405162461bcd60e51b81526020600482015260126024820152714e6f2072657761726420746f20636c61696d60701b604482015260640161043d565b60028201805460ff19166001179055604051600090339083908381818185875af1925050503d80600081146113be576040519150601f19603f3d011682016040523d82523d6000602084013e6113c3565b606091505b50509050806114065760405162461bcd60e51b815260206004820152600f60248201526e151c985b9cd9995c8819985a5b1959608a1b604482015260640161043d565b604051828152339087907f24b5efa61dd1cfc659205a97fb8ed868f3cb8c81922bab2b96423e5de1de2cb79060200160405180910390a3505050505050565b600260208190526000918252604090912080546001820154928201546003830154600484015460058501546006860180546001600160a01b03909616979694959394929360ff80841694610100909404169291906114a290612562565b80601f01602080910402602001604051908101604052809291908181526020018280546114ce90612562565b801561151b5780601f106114f05761010080835404028352916020019161151b565b820191906000526020600020905b8154815290600101906020018083116114fe57829003601f168201915b5050505050908060070154905089565b611551604051806060016040528060008152602001600081526020016000151581525090565b8260005481106115735760405162461bcd60e51b815260040161043d90612702565b505060009182526004602090815260408084206001600160a01b03939093168452918152918190208151606081018352815481526001820154938101939093526002015460ff1615159082015290565b8060005481106115e55760405162461bcd60e51b815260040161043d90612702565b600082815260026020526040812090600582015460ff16600281111561160d5761160d6122c3565b146116455760405162461bcd60e51b81526020600482015260086024820152672737ba1037b832b760c11b604482015260640161043d565b806001015442101561168b5760405162461bcd60e51b815260206004820152600f60248201526e4265666f726520646561646c696e6560881b604482015260640161043d565b60058101805460ff1916600117905560405183907f2d597ad63f8c5090e993389fdab0249476d2f29bcbc52e99da3236a4370f11ba90600090a2505050565b600360205260009081526040902080546001820180546001600160a01b0390921692916116f690612562565b80601f016020809104026020016040519081016040528092919081815260200182805461172290612562565b801561176f5780601f106117445761010080835404028352916020019161176f565b820191906000526020600020905b81548152906001019060200180831161175257829003601f168201915b50505050509080600201805461178490612562565b80601f01602080910402602001604051908101604052809291908181526020018280546117b090612562565b80156117fd5780601f106117d2576101008083540402835291602001916117fd565b820191906000526020600020905b8154815290600101906020018083116117e057829003601f168201915b50505050509080600301805461181290612562565b80601f016020809104026020016040519081016040528092919081815260200182805461183e90612562565b801561188b5780601f106118605761010080835404028352916020019161188b565b820191906000526020600020905b81548152906001019060200180831161186e57829003601f168201915b5050505050908060040180546118a090612562565b80601f01602080910402602001604051908101604052809291908181526020018280546118cc90612562565b80156119195780601f106118ee57610100808354040283529160200191611919565b820191906000526020600020905b8154815290600101906020018083116118fc57829003601f168201915b50505050509080600501805461192e90612562565b80601f016020809104026020016040519081016040528092919081815260200182805461195a90612562565b80156119a75780601f1061197c576101008083540402835291602001916119a7565b820191906000526020600020905b81548152906001019060200180831161198a57829003601f168201915b5050505050908060060154905087565b6005546001600160a01b031633146119ff5760405162461bcd60e51b815260206004820152600b60248201526a4f6e6c79206f7261636c6560a81b604482015260640161043d565b816000548110611a215760405162461bcd60e51b815260040161043d90612702565b60008381526002602052604090206001600582015460ff166002811115611a4a57611a4a6122c3565b14611a845760405162461bcd60e51b815260206004820152600a602482015269139bdd081b1bd8dad95960b21b604482015260640161043d565b6001836002811115611a9857611a986122c3565b1480611ab557506002836002811115611ab357611ab36122c3565b145b611af05760405162461bcd60e51b815260206004820152600c60248201526b496e76616c6964207369646560a01b604482015260640161043d565b600581018054600260ff1982168117835585929161ffff1916811790610100908490811115611b2157611b216122c3565b0217905550837f739f283563fb51ab6b89ee95d937b2e63a6cfcb83c385dbebb629f9d97bd43e684604051611b56919061279a565b60405180910390a250505050565b611b6c611f9e565b816000548110611b8e5760405162461bcd60e51b815260040161043d90612702565b60008381526002602081815260409283902083516101208101855281546001600160a01b0316815260018201549281019290925280830154938201939093526003830154606082015260048301546080820152600583015490929160a084019160ff1690811115611c0157611c016122c3565b6002811115611c1257611c126122c3565b81526020016005820160019054906101000a900460ff166002811115611c3a57611c3a6122c3565b6002811115611c4b57611c4b6122c3565b8152602001600682018054611c5f90612562565b80601f0160208091040260200160405190810160405280929190818152602001828054611c8b90612562565b8015611cd85780601f10611cad57610100808354040283529160200191611cd8565b820191906000526020600020905b815481529060010190602001808311611cbb57829003601f168201915b5050505050815260200160078201548152505091505b50919050565b6000428511611d455760405162461bcd60e51b815260206004820152601760248201527f446561646c696e65206d75737420626520667574757265000000000000000000604482015260640161043d565b60003411611d865760405162461bcd60e51b815260206004820152600e60248201526d26bab9ba1039ba30b5b29021272160911b604482015260640161043d565b8115611dd6576001548210611dd65760405162461bcd60e51b815260206004820152601660248201527514dd185c9d1d5c08191bd95cc81b9bdd08195e1a5cdd60521b604482015260640161043d565b600080548180611de583612533565b919050559050604051806101200160405280336001600160a01b03168152602001878152602001348152602001600081526020016000815260200160006002811115611e3357611e336122c3565b81526020016000815260200186868080601f016020809104026020016040519081016040528093929190818152602001838380828437600092018290525093855250505060209182018690528381526002808352604091829020845181546001600160a01b0319166001600160a01b03909116178155928401516001808501919091559184015183820155606084015160038401556080840151600484015560a08401516005840180549193909260ff19909216918490811115611ef957611ef96122c3565b021790555060c082015160058201805461ff001916610100836002811115611f2357611f236122c3565b021790555060e08201516006820190611f3c90826125e7565b506101008201518160070155905050336001600160a01b0316817fb9ab7a70203985c98325c26c38bb6fd1cf423e213a311b03bc93a18db2f700878834898989604051611f8d9594939291906127ad565b60405180910390a395945050505050565b60405180610120016040528060006001600160a01b031681526020016000815260200160008152602001600081526020016000815260200160006002811115611fe957611fe96122c3565b81526020016000815260200160608152602001600081525090565b60008083601f84011261201657600080fd5b50813567ffffffffffffffff81111561202e57600080fd5b60208301915083602082850101111561204657600080fd5b9250929050565b60008060008060008060008060008060a08b8d03121561206c57600080fd5b8a3567ffffffffffffffff8082111561208457600080fd5b6120908e838f01612004565b909c509a5060208d01359150808211156120a957600080fd5b6120b58e838f01612004565b909a50985060408d01359150808211156120ce57600080fd5b6120da8e838f01612004565b909850965060608d01359150808211156120f357600080fd5b6120ff8e838f01612004565b909650945060808d013591508082111561211857600080fd5b506121258d828e01612004565b915080935050809150509295989b9194979a5092959850565b80356001600160a01b038116811461215557600080fd5b919050565b60006020828403121561216c57600080fd5b6121758261213e565b9392505050565b60006020828403121561218e57600080fd5b5035919050565b6000815180845260005b818110156121bb5760208185018101518683018201520161219f565b506000602082860101526020601f19601f83011685010191505092915050565b602080825282516001600160a01b03168282015282015160e0604083015260009061220a610100840182612195565b90506040840151601f19808584030160608601526122288383612195565b925060608601519150808584030160808601526122458383612195565b925060808601519150808584030160a08601526122628383612195565b925060a08601519150808584030160c0860152506122808282612195565b91505060c084015160e08401528091505092915050565b600080604083850312156122aa57600080fd5b823591506122ba6020840161213e565b90509250929050565b634e487b7160e01b600052602160045260246000fd5b600381106122f757634e487b7160e01b600052602160045260246000fd5b50565b612303816122d9565b9052565b600061012060018060a01b038c1683528a6020840152896040840152886060840152876080840152612338876122d9565b8660a0840152612347866122d9565b8560c08401528060e084015261235f81840186612195565b915050826101008301529a9950505050505050505050565b6001600160a01b038816815260e06020820181905260009061239b90830189612195565b82810360408401526123ad8189612195565b905082810360608401526123c18188612195565b905082810360808401526123d58187612195565b905082810360a08401526123e98186612195565b9150508260c083015298975050505050505050565b6000806040838503121561241157600080fd5b8235915060208301356003811061242757600080fd5b809150509250929050565b6020815261244c6020820183516001600160a01b03169052565b602082015160408201526040820151606082015260608201516080820152608082015160a0820152600060a083015161248860c08401826122fa565b5060c083015161249b60e08401826122fa565b5060e083015161012061010081818601526124ba610140860184612195565b9501519301929092525090919050565b600080600080606085870312156124e057600080fd5b84359350602085013567ffffffffffffffff8111156124fe57600080fd5b61250a87828801612004565b9598909750949560400135949350505050565b634e487b7160e01b600052601160045260246000fd5b6000600182016125455761254561251d565b5060010190565b634e487b7160e01b600052604160045260246000fd5b600181811c9082168061257657607f821691505b602082108103611cee57634e487b7160e01b600052602260045260246000fd5b601f8211156125e2576000816000526020600020601f850160051c810160208610156125bf5750805b601f850160051c820191505b818110156125de578281556001016125cb565b5050505b505050565b815167ffffffffffffffff8111156126015761260161254c565b6126158161260f8454612562565b84612596565b602080601f83116001811461264a57600084156126325750858301515b600019600386901b1c1916600185901b1785556125de565b600085815260208120601f198616915b828110156126795788860151825594840194600190910190840161265a565b50858210156126975787850151600019600388901b60f8161c191681555b5050505050600190811b01905550565b81835281816020850137506000828201602090810191909152601f909101601f19169091010190565b6040815260006126e46040830186886126a7565b82810360208401526126f78185876126a7565b979650505050505050565b60208082526015908201527413585c9ad95d08191bd95cc81b9bdd08195e1a5cdd605a1b604082015260600190565b808201808211156127445761274461251d565b92915050565b60408101612757846122d9565b9281526020015290565b80820281158282048414176127445761274461251d565b60008261279557634e487b7160e01b600052601260045260246000fd5b500490565b602081016127a7836122d9565b91905290565b8581528460208201526080604082015260006127cd6080830185876126a7565b9050826060830152969550505050505056fea2646970667358221220208e3866df30e702b1e949e660f75c7e676cb4e4aae3b0fa360781df0e90325264736f6c63430008180033",
  "linkReferences": {},
  "deployedLinkReferences": {}
}